{
  "_format": "hh-sol-artifact-1",
  "contractName": "FlashLoanExample",
  "sourceName": "contracts/FlashLoanExample.sol",
  "abi": [
    {
      "inputs": [
        {
          "internalType": "contract IPoolAddressesProvider",
          "name": "provider",
          "type": "address"
        }
      ],
      "stateMutability": "nonpayable",
      "type": "constructor"
    },
    {
      "anonymous": false,
      "inputs": [
        {
          "indexed": false,
          "internalType": "address",
          "name": "asset",
          "type": "address"
        },
        {
          "indexed": false,
          "internalType": "uint256",
          "name": "val",
          "type": "uint256"
        }
      ],
      "name": "Log",
      "type": "event"
    },
    {
      "inputs": [],
      "name": "ADDRESSES_PROVIDER",
      "outputs": [
        {
          "internalType": "contract IPoolAddressesProvider",
          "name": "",
          "type": "address"
        }
      ],
      "stateMutability": "view",
      "type": "function"
    },
    {
      "inputs": [],
      "name": "POOL",
      "outputs": [
        {
          "internalType": "contract IPool",
          "name": "",
          "type": "address"
        }
      ],
      "stateMutability": "view",
      "type": "function"
    },
    {
      "inputs": [
        {
          "internalType": "address",
          "name": "asset",
          "type": "address"
        },
        {
          "internalType": "uint256",
          "name": "amount",
          "type": "uint256"
        },
        {
          "internalType": "bytes",
          "name": "params",
          "type": "bytes"
        }
      ],
      "name": "createFlashLoan",
      "outputs": [],
      "stateMutability": "nonpayable",
      "type": "function"
    },
    {
      "inputs": [
        {
          "internalType": "address",
          "name": "asset",
          "type": "address"
        },
        {
          "internalType": "uint256",
          "name": "amount",
          "type": "uint256"
        },
        {
          "internalType": "uint256",
          "name": "premium",
          "type": "uint256"
        },
        {
          "internalType": "address",
          "name": "initiator",
          "type": "address"
        },
        {
          "internalType": "bytes",
          "name": "params",
          "type": "bytes"
        }
      ],
      "name": "executeOperation",
      "outputs": [
        {
          "internalType": "bool",
          "name": "",
          "type": "bool"
        }
      ],
      "stateMutability": "nonpayable",
      "type": "function"
    }
  ],
  "bytecode": "0x60c06040523480156200001157600080fd5b5060405162000bb638038062000bb6833981810160405281019062000037919062000197565b808073ffffffffffffffffffffffffffffffffffffffff1660808173ffffffffffffffffffffffffffffffffffffffff16815250508073ffffffffffffffffffffffffffffffffffffffff1663026b1d5f6040518163ffffffff1660e01b8152600401602060405180830381865afa158015620000b8573d6000803e3d6000fd5b505050506040513d601f19601f82011682018060405250810190620000de9190620001fa565b73ffffffffffffffffffffffffffffffffffffffff1660a08173ffffffffffffffffffffffffffffffffffffffff168152505050506200022c565b600080fd5b600073ffffffffffffffffffffffffffffffffffffffff82169050919050565b60006200014b826200011e565b9050919050565b60006200015f826200013e565b9050919050565b620001718162000152565b81146200017d57600080fd5b50565b600081519050620001918162000166565b92915050565b600060208284031215620001b057620001af62000119565b5b6000620001c08482850162000180565b91505092915050565b620001d4816200013e565b8114620001e057600080fd5b50565b600081519050620001f481620001c9565b92915050565b60006020828403121562000213576200021262000119565b5b60006200022384828501620001e3565b91505092915050565b60805160a0516109576200025f6000396000818161012c015281816101fe01526102980152600060db01526109576000f3fe608060405234801561001057600080fd5b506004361061004c5760003560e01c80630542975c146100515780631b11d0ff1461006f57806347dc92c11461009f5780637535d246146100bb575b600080fd5b6100596100d9565b6040516100669190610339565b60405180910390f35b61008960048036038101906100849190610441565b6100fd565b60405161009691906104f6565b60405180910390f35b6100b960048036038101906100b49190610652565b6101f5565b005b6100c3610296565b6040516100d091906106e2565b60405180910390f35b7f000000000000000000000000000000000000000000000000000000000000000081565b600080858761010c919061072c565b90508773ffffffffffffffffffffffffffffffffffffffff1663095ea7b37f0000000000000000000000000000000000000000000000000000000000000000836040518363ffffffff1660e01b81526004016101699291906107a0565b6020604051808303816000875af1158015610188573d6000803e3d6000fd5b505050506040513d601f19601f820116820180604052508101906101ac91906107f5565b507ff950957d2407bed19dc99b718b46b4ce6090c05589006dfb86fd22c34865b23e88826040516101de9291906107a0565b60405180910390a160019150509695505050505050565b600030905060007f000000000000000000000000000000000000000000000000000000000000000073ffffffffffffffffffffffffffffffffffffffff166342b0b77c83878787866040518663ffffffff1660e01b815260040161025d9594939291906108c7565b600060405180830381600087803b15801561027757600080fd5b505af115801561028b573d6000803e3d6000fd5b505050505050505050565b7f000000000000000000000000000000000000000000000000000000000000000081565b600073ffffffffffffffffffffffffffffffffffffffff82169050919050565b6000819050919050565b60006102ff6102fa6102f5846102ba565b6102da565b6102ba565b9050919050565b6000610311826102e4565b9050919050565b600061032382610306565b9050919050565b61033381610318565b82525050565b600060208201905061034e600083018461032a565b92915050565b6000604051905090565b600080fd5b600080fd5b6000610373826102ba565b9050919050565b61038381610368565b811461038e57600080fd5b50565b6000813590506103a08161037a565b92915050565b6000819050919050565b6103b9816103a6565b81146103c457600080fd5b50565b6000813590506103d6816103b0565b92915050565b600080fd5b600080fd5b600080fd5b60008083601f840112610401576104006103dc565b5b8235905067ffffffffffffffff81111561041e5761041d6103e1565b5b60208301915083600182028301111561043a576104396103e6565b5b9250929050565b60008060008060008060a0878903121561045e5761045d61035e565b5b600061046c89828a01610391565b965050602061047d89828a016103c7565b955050604061048e89828a016103c7565b945050606061049f89828a01610391565b935050608087013567ffffffffffffffff8111156104c0576104bf610363565b5b6104cc89828a016103eb565b92509250509295509295509295565b60008115159050919050565b6104f0816104db565b82525050565b600060208201905061050b60008301846104e7565b92915050565b600080fd5b6000601f19601f8301169050919050565b7f4e487b7100000000000000000000000000000000000000000000000000000000600052604160045260246000fd5b61055f82610516565b810181811067ffffffffffffffff8211171561057e5761057d610527565b5b80604052505050565b6000610591610354565b905061059d8282610556565b919050565b600067ffffffffffffffff8211156105bd576105bc610527565b5b6105c682610516565b9050602081019050919050565b82818337600083830152505050565b60006105f56105f0846105a2565b610587565b90508281526020810184848401111561061157610610610511565b5b61061c8482856105d3565b509392505050565b600082601f830112610639576106386103dc565b5b81356106498482602086016105e2565b91505092915050565b60008060006060848603121561066b5761066a61035e565b5b600061067986828701610391565b935050602061068a868287016103c7565b925050604084013567ffffffffffffffff8111156106ab576106aa610363565b5b6106b786828701610624565b9150509250925092565b60006106cc82610306565b9050919050565b6106dc816106c1565b82525050565b60006020820190506106f760008301846106d3565b92915050565b7f4e487b7100000000000000000000000000000000000000000000000000000000600052601160045260246000fd5b6000610737826103a6565b9150610742836103a6565b9250827fffffffffffffffffffffffffffffffffffffffffffffffffffffffffffffffff03821115610777576107766106fd565b5b828201905092915050565b61078b81610368565b82525050565b61079a816103a6565b82525050565b60006040820190506107b56000830185610782565b6107c26020830184610791565b9392505050565b6107d2816104db565b81146107dd57600080fd5b50565b6000815190506107ef816107c9565b92915050565b60006020828403121561080b5761080a61035e565b5b6000610819848285016107e0565b91505092915050565b600081519050919050565b600082825260208201905092915050565b60005b8381101561085c578082015181840152602081019050610841565b8381111561086b576000848401525b50505050565b600061087c82610822565b610886818561082d565b935061089681856020860161083e565b61089f81610516565b840191505092915050565b600061ffff82169050919050565b6108c1816108aa565b82525050565b600060a0820190506108dc6000830188610782565b6108e96020830187610782565b6108f66040830186610791565b81810360608301526109088185610871565b905061091760808301846108b8565b969550505050505056fea264697066735822122045a65794b060e13cb51800af87fb897c83a5aebb43b6c1ae9a77ed7652406aa964736f6c634300080a0033",
  "linkReferences": {},
  "deployedLinkReferences": {}
}