{
  "_format": "hh-sol-artifact-1",
  "contractName": "FlashLoanSwapTest",
  "sourceName": "contracts/FlashLoanSwapTest.sol",
  "abi": [
    {
      "inputs": [
        {
          "internalType": "address",
          "name": "provider",
          "type": "address"
        }
      ],
      "stateMutability": "nonpayable",
      "type": "constructor"
    },
    {
      "anonymous": false,
      "inputs": [
        {
          "indexed": false,
          "internalType": "address",
          "name": "asset",
          "type": "address"
        },
        {
          "indexed": false,
          "internalType": "uint256",
          "name": "val",
          "type": "uint256"
        }
      ],
      "name": "Log",
      "type": "event"
    },
    {
      "inputs": [],
      "name": "ADDRESSES_PROVIDER",
      "outputs": [
        {
          "internalType": "contract IPoolAddressesProvider",
          "name": "",
          "type": "address"
        }
      ],
      "stateMutability": "view",
      "type": "function"
    },
    {
      "inputs": [],
      "name": "POOL",
      "outputs": [
        {
          "internalType": "contract IPool",
          "name": "",
          "type": "address"
        }
      ],
      "stateMutability": "view",
      "type": "function"
    },
    {
      "inputs": [
        {
          "internalType": "address",
          "name": "asset",
          "type": "address"
        },
        {
          "internalType": "uint256",
          "name": "amount",
          "type": "uint256"
        },
        {
          "internalType": "bytes",
          "name": "params",
          "type": "bytes"
        }
      ],
      "name": "createFlashLoan",
      "outputs": [],
      "stateMutability": "nonpayable",
      "type": "function"
    },
    {
      "inputs": [
        {
          "internalType": "address",
          "name": "asset",
          "type": "address"
        },
        {
          "internalType": "uint256",
          "name": "amount",
          "type": "uint256"
        },
        {
          "internalType": "uint256",
          "name": "premium",
          "type": "uint256"
        },
        {
          "internalType": "address",
          "name": "initiator",
          "type": "address"
        },
        {
          "internalType": "bytes",
          "name": "params",
          "type": "bytes"
        }
      ],
      "name": "executeOperation",
      "outputs": [
        {
          "internalType": "bool",
          "name": "",
          "type": "bool"
        }
      ],
      "stateMutability": "nonpayable",
      "type": "function"
    },
    {
      "inputs": [
        {
          "internalType": "address",
          "name": "_erc20Address",
          "type": "address"
        }
      ],
      "name": "getERC20Balance",
      "outputs": [
        {
          "internalType": "uint256",
          "name": "",
          "type": "uint256"
        }
      ],
      "stateMutability": "view",
      "type": "function"
    },
    {
      "inputs": [
        {
          "internalType": "uint256",
          "name": "amount",
          "type": "uint256"
        },
        {
          "internalType": "address",
          "name": "token0",
          "type": "address"
        },
        {
          "internalType": "address",
          "name": "token1",
          "type": "address"
        },
        {
          "internalType": "address",
          "name": "router0",
          "type": "address"
        },
        {
          "internalType": "address",
          "name": "router1",
          "type": "address"
        }
      ],
      "name": "makeArbitrage",
      "outputs": [],
      "stateMutability": "nonpayable",
      "type": "function"
    },
    {
      "inputs": [],
      "name": "owner",
      "outputs": [
        {
          "internalType": "address",
          "name": "",
          "type": "address"
        }
      ],
      "stateMutability": "view",
      "type": "function"
    },
    {
      "inputs": [
        {
          "internalType": "uint256",
          "name": "amount",
          "type": "uint256"
        },
        {
          "internalType": "address",
          "name": "tokenAddress0",
          "type": "address"
        }
      ],
      "name": "withdraw",
      "outputs": [],
      "stateMutability": "nonpayable",
      "type": "function"
    }
  ],
  "bytecode": "0x60c06040523480156200001157600080fd5b50604051620018e7380380620018e78339818101604052810190620000379190620001c3565b808073ffffffffffffffffffffffffffffffffffffffff1660808173ffffffffffffffffffffffffffffffffffffffff16815250508073ffffffffffffffffffffffffffffffffffffffff1663026b1d5f6040518163ffffffff1660e01b8152600401602060405180830381865afa158015620000b8573d6000803e3d6000fd5b505050506040513d601f19601f82011682018060405250810190620000de9190620001c3565b73ffffffffffffffffffffffffffffffffffffffff1660a08173ffffffffffffffffffffffffffffffffffffffff168152505050336000806101000a81548173ffffffffffffffffffffffffffffffffffffffff021916908373ffffffffffffffffffffffffffffffffffffffff16021790555050620001f5565b600080fd5b600073ffffffffffffffffffffffffffffffffffffffff82169050919050565b60006200018b826200015e565b9050919050565b6200019d816200017e565b8114620001a957600080fd5b50565b600081519050620001bd8162000192565b92915050565b600060208284031215620001dc57620001db62000159565b5b6000620001ec84828501620001ac565b91505092915050565b60805160a0516116be620002296000396000818161037c0152818161045201526104ec0152600061030001526116be6000f3fe608060405234801561001057600080fd5b50600436106100875760003560e01c80637535d2461161005b5780637535d246146101125780638da5cb5b14610130578063b588d2251461014e578063df0e1bd71461017e57610087565b8062f714ce1461008c5780630542975c146100a85780631b11d0ff146100c657806347dc92c1146100f6575b600080fd5b6100a660048036038101906100a19190610a67565b61019a565b005b6100b06102fe565b6040516100bd9190610b06565b60405180910390f35b6100e060048036038101906100db9190610b86565b610322565b6040516100ed9190610c3b565b60405180910390f35b610110600480360381019061010b9190610d97565b610449565b005b61011a6104ea565b6040516101279190610e27565b60405180910390f35b61013861050e565b6040516101459190610e51565b60405180910390f35b61016860048036038101906101639190610e6c565b610532565b6040516101759190610ea8565b60405180910390f35b61019860048036038101906101939190610ec3565b6105b5565b005b60008054906101000a900473ffffffffffffffffffffffffffffffffffffffff1673ffffffffffffffffffffffffffffffffffffffff163373ffffffffffffffffffffffffffffffffffffffff1614610228576040517f08c379a000000000000000000000000000000000000000000000000000000000815260040161021f90610f9b565b60405180910390fd5b600061023382610532565b905080831115610278576040517f08c379a000000000000000000000000000000000000000000000000000000000815260040161026f90611007565b60405180910390fd5b8173ffffffffffffffffffffffffffffffffffffffff166323b872dd3033866040518463ffffffff1660e01b81526004016102b593929190611027565b6020604051808303816000875af11580156102d4573d6000803e3d6000fd5b505050506040513d601f19601f820116820180604052508101906102f8919061108a565b50505050565b7f000000000000000000000000000000000000000000000000000000000000000081565b6000806000806000868681019061033991906110f5565b935093509350935061034e8a858585856105b5565b6000898b61035c919061118b565b90508b73ffffffffffffffffffffffffffffffffffffffff1663095ea7b37f0000000000000000000000000000000000000000000000000000000000000000836040518363ffffffff1660e01b81526004016103b99291906111e1565b6020604051808303816000875af11580156103d8573d6000803e3d6000fd5b505050506040513d601f19601f820116820180604052508101906103fc919061108a565b507ff950957d2407bed19dc99b718b46b4ce6090c05589006dfb86fd22c34865b23e8c8260405161042e9291906111e1565b60405180910390a16001955050505050509695505050505050565b600030905060007f000000000000000000000000000000000000000000000000000000000000000073ffffffffffffffffffffffffffffffffffffffff166342b0b77c83878787866040518663ffffffff1660e01b81526004016104b19594939291906112af565b600060405180830381600087803b1580156104cb57600080fd5b505af11580156104df573d6000803e3d6000fd5b505050505050505050565b7f000000000000000000000000000000000000000000000000000000000000000081565b60008054906101000a900473ffffffffffffffffffffffffffffffffffffffff1681565b60008173ffffffffffffffffffffffffffffffffffffffff166370a08231306040518263ffffffff1660e01b815260040161056d9190610e51565b602060405180830381865afa15801561058a573d6000803e3d6000fd5b505050506040513d601f19601f820116820180604052508101906105ae919061131e565b9050919050565b60006105c3868487876105da565b90506105d1818386886105da565b50505050505050565b60008273ffffffffffffffffffffffffffffffffffffffff1663095ea7b385876040518363ffffffff1660e01b81526004016106179291906111e1565b6020604051808303816000875af1158015610636573d6000803e3d6000fd5b505050506040513d601f19601f8201168201806040525081019061065a919061108a565b5060006064605f61066d8787878b610825565b610677919061134b565b61068191906113d4565b90506000600267ffffffffffffffff8111156106a05761069f610c6c565b5b6040519080825280602002602001820160405280156106ce5781602001602082028036833780820191505090505b50905084816000815181106106e6576106e5611405565b5b602002602001019073ffffffffffffffffffffffffffffffffffffffff16908173ffffffffffffffffffffffffffffffffffffffff1681525050838160018151811061073557610734611405565b5b602002602001019073ffffffffffffffffffffffffffffffffffffffff16908173ffffffffffffffffffffffffffffffffffffffff168152505060008673ffffffffffffffffffffffffffffffffffffffff166338ed173989858530426040518663ffffffff1660e01b81526004016107b29594939291906114f2565b6000604051808303816000875af11580156107d1573d6000803e3d6000fd5b505050506040513d6000823e3d601f19601f820116820180604052508101906107fa919061160f565b60018151811061080d5761080c611405565b5b60200260200101519050809350505050949350505050565b600080600267ffffffffffffffff81111561084357610842610c6c565b5b6040519080825280602002602001820160405280156108715781602001602082028036833780820191505090505b509050848160008151811061088957610888611405565b5b602002602001019073ffffffffffffffffffffffffffffffffffffffff16908173ffffffffffffffffffffffffffffffffffffffff168152505083816001815181106108d8576108d7611405565b5b602002602001019073ffffffffffffffffffffffffffffffffffffffff16908173ffffffffffffffffffffffffffffffffffffffff168152505060008673ffffffffffffffffffffffffffffffffffffffff1663d06ca61f85846040518363ffffffff1660e01b815260040161094f929190611658565b600060405180830381865afa15801561096c573d6000803e3d6000fd5b505050506040513d6000823e3d601f19601f82011682018060405250810190610995919061160f565b6001815181106109a8576109a7611405565b5b602002602001015190508092505050949350505050565b6000604051905090565b600080fd5b600080fd5b6000819050919050565b6109e6816109d3565b81146109f157600080fd5b50565b600081359050610a03816109dd565b92915050565b600073ffffffffffffffffffffffffffffffffffffffff82169050919050565b6000610a3482610a09565b9050919050565b610a4481610a29565b8114610a4f57600080fd5b50565b600081359050610a6181610a3b565b92915050565b60008060408385031215610a7e57610a7d6109c9565b5b6000610a8c858286016109f4565b9250506020610a9d85828601610a52565b9150509250929050565b6000819050919050565b6000610acc610ac7610ac284610a09565b610aa7565b610a09565b9050919050565b6000610ade82610ab1565b9050919050565b6000610af082610ad3565b9050919050565b610b0081610ae5565b82525050565b6000602082019050610b1b6000830184610af7565b92915050565b600080fd5b600080fd5b600080fd5b60008083601f840112610b4657610b45610b21565b5b8235905067ffffffffffffffff811115610b6357610b62610b26565b5b602083019150836001820283011115610b7f57610b7e610b2b565b5b9250929050565b60008060008060008060a08789031215610ba357610ba26109c9565b5b6000610bb189828a01610a52565b9650506020610bc289828a016109f4565b9550506040610bd389828a016109f4565b9450506060610be489828a01610a52565b935050608087013567ffffffffffffffff811115610c0557610c046109ce565b5b610c1189828a01610b30565b92509250509295509295509295565b60008115159050919050565b610c3581610c20565b82525050565b6000602082019050610c506000830184610c2c565b92915050565b600080fd5b6000601f19601f8301169050919050565b7f4e487b7100000000000000000000000000000000000000000000000000000000600052604160045260246000fd5b610ca482610c5b565b810181811067ffffffffffffffff82111715610cc357610cc2610c6c565b5b80604052505050565b6000610cd66109bf565b9050610ce28282610c9b565b919050565b600067ffffffffffffffff821115610d0257610d01610c6c565b5b610d0b82610c5b565b9050602081019050919050565b82818337600083830152505050565b6000610d3a610d3584610ce7565b610ccc565b905082815260208101848484011115610d5657610d55610c56565b5b610d61848285610d18565b509392505050565b600082601f830112610d7e57610d7d610b21565b5b8135610d8e848260208601610d27565b91505092915050565b600080600060608486031215610db057610daf6109c9565b5b6000610dbe86828701610a52565b9350506020610dcf868287016109f4565b925050604084013567ffffffffffffffff811115610df057610def6109ce565b5b610dfc86828701610d69565b9150509250925092565b6000610e1182610ad3565b9050919050565b610e2181610e06565b82525050565b6000602082019050610e3c6000830184610e18565b92915050565b610e4b81610a29565b82525050565b6000602082019050610e666000830184610e42565b92915050565b600060208284031215610e8257610e816109c9565b5b6000610e9084828501610a52565b91505092915050565b610ea2816109d3565b82525050565b6000602082019050610ebd6000830184610e99565b92915050565b600080600080600060a08688031215610edf57610ede6109c9565b5b6000610eed888289016109f4565b9550506020610efe88828901610a52565b9450506040610f0f88828901610a52565b9350506060610f2088828901610a52565b9250506080610f3188828901610a52565b9150509295509295909350565b600082825260208201905092915050565b7f6f6e6c79206f776e65722063616e2063616c6c20746869730000000000000000600082015250565b6000610f85601883610f3e565b9150610f9082610f4f565b602082019050919050565b60006020820190508181036000830152610fb481610f78565b9050919050565b7f4e6f7420656e6f75676820616d6f756e74206465706f73697465640000000000600082015250565b6000610ff1601b83610f3e565b9150610ffc82610fbb565b602082019050919050565b6000602082019050818103600083015261102081610fe4565b9050919050565b600060608201905061103c6000830186610e42565b6110496020830185610e42565b6110566040830184610e99565b949350505050565b61106781610c20565b811461107257600080fd5b50565b6000815190506110848161105e565b92915050565b6000602082840312156110a05761109f6109c9565b5b60006110ae84828501611075565b91505092915050565b60006110c282610a09565b9050919050565b6110d2816110b7565b81146110dd57600080fd5b50565b6000813590506110ef816110c9565b92915050565b6000806000806080858703121561110f5761110e6109c9565b5b600061111d878288016110e0565b945050602061112e878288016110e0565b935050604061113f878288016110e0565b9250506060611150878288016110e0565b91505092959194509250565b7f4e487b7100000000000000000000000000000000000000000000000000000000600052601160045260246000fd5b6000611196826109d3565b91506111a1836109d3565b9250827fffffffffffffffffffffffffffffffffffffffffffffffffffffffffffffffff038211156111d6576111d561115c565b5b828201905092915050565b60006040820190506111f66000830185610e42565b6112036020830184610e99565b9392505050565b600081519050919050565b600082825260208201905092915050565b60005b83811015611244578082015181840152602081019050611229565b83811115611253576000848401525b50505050565b60006112648261120a565b61126e8185611215565b935061127e818560208601611226565b61128781610c5b565b840191505092915050565b600061ffff82169050919050565b6112a981611292565b82525050565b600060a0820190506112c46000830188610e42565b6112d16020830187610e42565b6112de6040830186610e99565b81810360608301526112f08185611259565b90506112ff60808301846112a0565b9695505050505050565b600081519050611318816109dd565b92915050565b600060208284031215611334576113336109c9565b5b600061134284828501611309565b91505092915050565b6000611356826109d3565b9150611361836109d3565b9250817fffffffffffffffffffffffffffffffffffffffffffffffffffffffffffffffff048311821515161561139a5761139961115c565b5b828202905092915050565b7f4e487b7100000000000000000000000000000000000000000000000000000000600052601260045260246000fd5b60006113df826109d3565b91506113ea836109d3565b9250826113fa576113f96113a5565b5b828204905092915050565b7f4e487b7100000000000000000000000000000000000000000000000000000000600052603260045260246000fd5b600081519050919050565b600082825260208201905092915050565b6000819050602082019050919050565b61146981610a29565b82525050565b600061147b8383611460565b60208301905092915050565b6000602082019050919050565b600061149f82611434565b6114a9818561143f565b93506114b483611450565b8060005b838110156114e55781516114cc888261146f565b97506114d783611487565b9250506001810190506114b8565b5085935050505092915050565b600060a0820190506115076000830188610e99565b6115146020830187610e99565b81810360408301526115268186611494565b90506115356060830185610e42565b6115426080830184610e99565b9695505050505050565b600067ffffffffffffffff82111561156757611566610c6c565b5b602082029050602081019050919050565b600061158b6115868461154c565b610ccc565b905080838252602082019050602084028301858111156115ae576115ad610b2b565b5b835b818110156115d757806115c38882611309565b8452602084019350506020810190506115b0565b5050509392505050565b600082601f8301126115f6576115f5610b21565b5b8151611606848260208601611578565b91505092915050565b600060208284031215611625576116246109c9565b5b600082015167ffffffffffffffff811115611643576116426109ce565b5b61164f848285016115e1565b91505092915050565b600060408201905061166d6000830185610e99565b818103602083015261167f8184611494565b9050939250505056fea2646970667358221220e7883aba40c6efda8c44dfc102806199dbebbe0f54d3b2a484dbe2fbf9ffc94864736f6c634300080a0033",
  "linkReferences": {},
  "deployedLinkReferences": {}
}